:0400000007EF00F016
:0A0008006B822CED13F04EEF14F0A4
:10100000000D0D5475726E204F6666204C6564317C
:101010000D000D0D5475726E204F6666204C656490
:10102000320D000D0D5475726E204F6E204C6564AC
:10103000310D000D0D5475726E204F6E204C65649D
:10104000320D000044EF0AF0AC98B896AC94A4516D
:10105000D96EDA6ADECFA5F0DDCFA6F0A5C015F017
:10106000A6C016F0176A186A000EB8EC0EF015C08C
:1010700027F016C028F017C029F018C02AF0000E7B
:10108000236E240E246EF40E256E4A0E266EEBECB3
:101090000CF023C0ABF024C0ACF025C0ADF026C0EE
:1010A000AEF0000E276E000E286E800E296E420EE6
:1010B0002A6EABC023F0ACC024F0ADC025F0AEC0AA
:1010C00026F0EBEC0CF023C03CF024C03DF025C032
:1010D0003EF026C03FF0000E406E000E416E800EC6
:1010E000426EBF0E436E8BEC0AF03CC0A7F03DC0D1
:1010F000A8F03EC0A9F03FC0AAF06FEF0AF0AC988C
:10110000B896AC84A451D96EDA6ADECFA5F0DDCFF3
:10111000A6F0A5C015F0A6C016F0176A186A000E52
:10112000B8EC0EF015C027F016C028F017C029F053
:1011300018C02AF0000E236E240E246EF40E256EC5
:101140004A0E266EEBEC0CF023C0ABF024C0ACF0E2
:1011500025C0ADF026C0AEF0000E276E000E286E42
:10116000800E296E410E2A6EABC023F0ACC024F075
:10117000ADC025F0AEC026F0EBEC0CF023C03CF087
:1011800024C03DF025C03EF026C03FF0000E406E6A
:10119000000E416E800E426EBF0E436E8BEC0AF065
:1011A0003CC0A7F03DC0A8F03EC0A9F03FC0AAF0E7
:1011B0006FEF0AF0AC98B886AC94A451D96EDA6A95
:1011C000DECFA5F0DDCFA6F0A5C015F0A6C016F0C5
:1011D000176A186A000EB8EC0EF015C027F016C09A
:1011E00028F017C029F018C02AF0000E236E240E34
:1011F000246EF40E256E4A0E266EEBEC0CF023C026
:10120000ABF024C0ACF025C0ADF026C0AEF0000EAF
:10121000276E000E286E800E296E410E2A6EABC01E
:1012200023F0ACC024F0ADC025F0AEC026F0EBEC4E
:101230000CF023C03CF024C03DF025C03EF026C099
:101240003FF0000E406E000E416E800E426EBF0EEB
:10125000436E8BEC0AF03CC0A7F03DC0A8F03EC046
:10126000A9F03FC0AAF06FEF0AF0AC98B886AC8442
:10127000A451D96EDA6ADECFA5F0DDCFA6F0A5C005
:1012800015F0A6C016F0176A186A000EB8EC0EF03A
:1012900015C027F016C028F017C029F018C02AF092
:1012A000000E236E240E246EF40E256E4A0E266E5A
:1012B000EBEC0CF023C0ABF024C0ACF025C0ADF0DB
:1012C00026C0AEF0000E276E000E286E800E296E2E
:1012D000400E2A6EABC023F0ACC024F0ADC025F0A8
:1012E000AEC026F0EBEC0CF023C03CF024C03DF087
:1012F00025C03EF026C03FF0000E406E000E416E4D
:10130000800E426EBF0E436E8BEC0AF03CC0A7F01D
:101310003DC0A8F03EC0A9F03FC0AAF06FEF0AF0B0
:10132000AC88B896A451D96EDA6ADECFA5F0DDCFCD
:10133000A6F0A5C015F0A6C016F0176A186A000E30
:10134000B8EC0EF015C027F016C028F017C029F031
:1013500018C02AF0000E236E240E246EF40E256EA3
:101360004A0E266EEBEC0CF023C0ABF024C0ACF0C0
:1013700025C0ADF026C0AEF0000E276E000E286E20
:10138000800E296E400E2A6EABC023F0ACC024F054
:10139000ADC025F0AEC026F0EBEC0CF023C03CF065
:1013A00024C03DF025C03EF026C03FF0000E406E48
:1013B000000E416E800E426EBF0E436E8BEC0AF043
:1013C0003CC0A7F03DC0A8F03EC0A9F03FC0AAF0C5
:1013D0006FEF0AF0AC88B886A451D96EDA6ADECF16
:1013E000A5F0DDCFA6F0A5C015F0A6C016F0176ACF
:1013F000186A000EB8EC0EF015C027F016C028F0E1
:1014000017C029F018C02AF0000E236E240E246E97
:10141000F40E256E4A0E266EEBEC0CF023C0ABF0FA
:1014200024C0ACF025C0ADF026C0AEF0000E276E93
:10143000000E286E800E296E400E2A6EABC023F07F
:10144000ACC024F0ADC025F0AEC026F0EBEC0CF043
:1014500023C03CF024C03DF025C03EF026C03FF044
:10146000000E406E000E416E800E426EBF0E436E47
:101470008BEC0AF03CC0A7F03DC0A8F03EC0A9F03C
:101480003FC0AAF06FEF0AF00001A451D96EDA6AEA
:10149000020ED926DF50A56FA66BA651000AD8B45C
:1014A00054EF0AF06FEF0AF0A551000AD8B424EF08
:1014B00008F0010AD8B47FEF08F0030AD8B4DAEFD5
:1014C00008F0010AD8B435EF09F0070AD8B490EF54
:1014D00009F0010AD8B4EAEF09F06FEF0AF0A7C0EB
:1014E00015F0A8C016F0A9C017F0AAC018F0D3ECE8
:1014F00011F01550AF6EA7C015F0A8C016F0A9C026
:1015000017F0AAC018F0D3EC11F016C015F0166A47
:101510001550B06E12003F50800B486E3F503F2474
:101520004A6E3EAE96EF0AF098EF0AF099EF0AF095
:101530004A804A50D8B49FEF0AF0A1EF0AF0B6EF04
:101540000AF04A28D8A4A7EF0AF0A9EF0AF0B1EFF1
:101550000AF0000E3C6E000E3D6E000E3E6E000E58
:101560003F6E3E8E000E3F6EBEEF0AF0000E3C6EE8
:10157000000E3D6E000E3E6E000E3F6E4350800B1F
:10158000496E48504918D8B4C8EF0AF0CAEF0AF0BB
:10159000CBEF0AF0488C43504324496E42AED3EF60
:1015A0000AF0D5EF0AF0D6EF0AF049804950D8B4D6
:1015B000DCEF0AF0DEEF0AF0F3EF0AF04928D8A4D6
:1015C000E4EF0AF0E6EF0AF0EEEF0AF0000E406EEC
:1015D000000E416E000E426E000E436E428E000EF3
:1015E000436EFBEF0AF0000E406E000E416E000EDF
:1015F000426E000E436E4A50495CD8B002EF0BF0C9
:1016000004EF0BF02BEF0BF048AC09EF0BF00BEFF6
:101610000BF00DEF0BF0800E481A4AC04BF049C09A
:101620004AF04BC049F03CC04BF040C03CF04BC0CE
:1016300040F03DC04BF041C03DF04BC041F03EC0DA
:101640004BF042C03EF04BC042F03FC04BF043C0B5
:101650003FF04BC043F0000E4B6E4A5049C044F07F
:10166000456A445E000E455A45BE40EF0BF04550BA
:1016700009E11A0E445CD8A040EF0BF042EF0BF0EA
:1016800079EF0BF03C503D103E103F10D8A44BEFCB
:101690000BF04EEF0BF0010E4FEF0BF0000E4B6E08
:1016A000000E3C6E000E3D6E000E3E6E000E3F6E54
:1016B00049C04AF082EF0BF04BA061EF0BF063EFF3
:1016C0000BF069EF0BF0D8904B3001094B6E6BEFCC
:1016D0000BF0D8904B323CA070EF0BF072EF0BF098
:1016E00073EF0BF04B8E3F343F323E323D323C3293
:1016F0004A2A49504A5CD8A080EF0BF082EF0BF0E9
:101700005CEF0BF048BC87EF0BF089EF0BF0C9EFF3
:101710000BF04A50D8A48FEF0BF091EF0BF09BEF3A
:101720000BF0000E3C6E000E3D6E000E3E6E000E85
:101730003F6EEAEF0CF040503C2641503D224250B3
:101740003E2243503F223FA0A8EF0BF0AAEF0BF040
:1017500056EF0CF04BA0AFEF0BF0B1EF0BF0B7EF83
:101760000BF0D8904B3001094B6EB9EF0BF0D890CD
:101770004B323CA0BEEF0BF0C0EF0BF0C1EF0BF013
:101780004B8E3F343F323E323D323C324A2A56EF96
:101790000CF040503C5C41503D5842503E583F5048
:1017A000800A446E4350800A4458D8B0DAEF0BF0F8
:1017B000DCEF0BF007EF0CF03C50405C446E3D500A
:1017C0004158456E3E504258466E3F504358476E12
:1017D000FF0E44243C6EFF0E45203D6EFF0E46205A
:1017E0003E6EFF0E47203F6E800E481A4B6C4B50EA
:1017F000D8A4FDEF0BF0FFEF0BF00FEF0CF0010E94
:101800003C26000E3D223E223F220FEF0CF04050BE
:101810003C5E41503D5A42503E5A43503F5A3C5024
:101820003D103E103F10D8A418EF0CF01AEF0CF04A
:101830004FEF0CF04B50D8A420EF0CF022EF0CF03F
:101840004FEF0CF0000E3C6E000E3D6E000E3E6E33
:10185000000E3F6EEAEF0CF0D8903C363D363E3637
:101860003F364BAE36EF0CF038EF0CF039EF0CF0A2
:101870003C804BA03EEF0CF040EF0CF044EF0CF03E
:10188000D8804B3646EF0CF0D8904B364A50D8B43F
:101890004CEF0CF04EEF0CF04FEF0CF04A063EAE62
:1018A00054EF0CF056EF0CF02CEF0CF0000E496EDC
:1018B0004BAE5DEF0CF05FEF0CF077EF0CF04BC030
:1018C00044F07F0E4416D8B468EF0CF06AEF0CF0C9
:1018D0006EEF0CF0010E496E77EF0CF03CA073EF49
:1018E0000CF075EF0CF077EF0CF06AEF0CF049504C
:1018F000D8B47DEF0CF07FEF0CF0AAEF0CF0010EE6
:101900003C26000E3D223E223F223FA08AEF0CF0F3
:101910008CEF0CF0AAEF0CF03CC044F03DC045F059
:101920003EC046F03FC047F047344732463245326A
:10193000443244C03CF045C03DF046C03EF047C094
:101940003FF04A28D8B4A7EF0CF0A9EF0CF0AAEFAB
:101950000CF04A2A4A28D8B4B0EF0CF0B2EF0CF0E1
:10196000BAEF0CF04A50D8A4B8EF0CF0BAEF0CF074
:10197000CCEF0CF0000E3C6E000E3D6E000E3E6E85
:10198000000E3F6E4A50D8A4C8EF0CF0CAEF0CF01E
:10199000CCEF0CF0000E486E4AA0D1EF0CF0D3EF64
:1019A0000CF0D6EF0CF03E8ED7EF0CF03E9ED890A8
:1019B0004A303F6E48AEDFEF0CF0E1EF0CF0E2EFA3
:1019C0000CF03F8E3CC03CF03DC03DF03EC03EF0D0
:1019D0003FC03FF012002650800B336E2650262465
:1019E0003A6E25AEF6EF0CF0F8EF0CF0F9EF0CF0D4
:1019F0003A803A50D8B4FFEF0CF001EF0DF016EF3B
:101A00000DF03A28D8A407EF0DF009EF0DF011EF13
:101A10000DF0000E236E000E246E000E256E000EDB
:101A2000266E258E000E266E1EEF0DF0000E236E24
:101A3000000E246E000E256E000E266E2A50800BBE
:101A4000331A2A502A243B6E29AE29EF0DF02BEFD2
:101A50000DF02CEF0DF03B803B50D8B432EF0DF081
:101A600034EF0DF049EF0DF03B28D8A43AEF0DF01C
:101A70003CEF0DF044EF0DF0000E276E000E286EC7
:101A8000000E296E000E2A6E298E000E2A6E51EF6E
:101A90000DF0000E276E000E286E000E296E000E4F
:101AA0002A6E2750281029102A10D8A45AEF0DF0BA
:101AB0005CEF0DF074EF0DF0000E236E000E246E3F
:101AC000000E256E000E266E800E25127F0E261249
:101AD0003350261223C023F024C024F025C025F063
:101AE00026C026F0B7EF0EF03A50D8A47AEF0DF0EA
:101AF0007CEF0DF086EF0DF0000E236E000E246ECD
:101B0000000E256E000E266EB7EF0EF03B503AC069
:101B10002BF02C6A2B5E000E2C5A7F0E2B24346E79
:101B2000000E2C20356E23C02FF024C030F025C0CD
:101B300031F026C032F0000E236E000E246E000E2F
:101B4000256E000E266E000E366E000E376E000EED
:101B5000386E000E396E000E3B6EE7EF0DF03B5015
:101B6000D8B4B5EF0DF0B7EF0DF0CEEF0DF0D89083
:101B70002F36303631363236D89023362436253655
:101B8000263639AEC6EF0DF0C8EF0DF0C9EF0DF0F7
:101B90002380D890363637363836393627502F5C82
:101BA00028503058295031582A503258D8A0DBEFED
:101BB0000DF0DDEF0DF0E6EF0DF0398C27502F5EC4
:101BC0002850305A2950315A2A50325A3B2A190E7D
:101BD0003B64EDEF0DF0EFEF0DF0AFEF0DF02F5098
:101BE000301031103210D8B4F8EF0DF0FAEF0DF0DC
:101BF00012EF0EF0368012EF0EF0D8902336243616
:101C00002536263639AE07EF0EF009EF0EF00AEF53
:101C10000EF02380D89036363736383639363406CB
:101C2000D8A0350625AE17EF0EF019EF0EF0FDEF38
:101C30000DF0000E3B6E39AE20EF0EF022EF0EF0ED
:101C400046EF0EF0FF0E36142B6EFF0E37142C6E7F
:101C5000FF0E38142D6E7F0E39142E6E2B502C1063
:101C60002D102E10D8B437EF0EF039EF0EF03DEFF7
:101C70000EF0010E3B6E46EF0EF023A042EF0EF089
:101C800044EF0EF046EF0EF039EF0EF03B50D8B4B3
:101C90004CEF0EF04EEF0EF072EF0EF0010E232619
:101CA000000E24222522262226A059EF0EF05BEFFB
:101CB0000EF072EF0EF023C02BF024C02CF025C0E4
:101CC0002DF026C02EF02E342E322D322C322B3217
:101CD0002BC023F02CC024F02DC025F02EC026F000
:101CE000344A352A35BE7DEF0EF0355008E13428F0
:101CF000D8A07DEF0EF07FEF0EF08AEF0EF0000E11
:101D0000356E3468000E236E000E246E000E256EB4
:101D1000000E266E35BE97EF0EF0355006E1340406
:101D2000D8B095EF0EF097EF0EF0A5EF0EF0000E85
:101D3000356E000E346E000E236E000E246E000E03
:101D4000256E000E266E000E336E34C03AF03AA0B7
:101D5000ACEF0EF0AEEF0EF0B1EF0EF0258EB2EF5D
:101D60000EF0259ED8903A30266E68EF0DF01200E6
:101D70001D6E1D50D8B4BFEF0EF0C1EF0EF0E3EFB3
:101D80000EF018BEC8EF0EF0C6EF0EF0E3EF0EF047
:101D900015C019F016C01AF017C01BF018C01CF0BF
:101DA000191E1A1E1B1E1C1E192A000E1A221B2287
:101DB0001C2219C01FF01AC020F01BC021F01CC04B
:101DC00022F0EBEF0EF015C01FF016C020F017C088
:101DD00021F018C022F01550161017101810D8A4B2
:101DE000F4EF0EF0F6EF0EF000EF0FF0000E156EB0
:101DF000000E166E000E176E000E186E91EF0FF0AB
:101E0000960E1E6E0AEF0FF01E2AD8902232213253
:101E100020321F32000E1F14196E000E20141A6E8D
:101E2000000E21141B6EFE0E22141C6E19501A1087
:101E30001B101C10D8A41FEF0FF021EF0FF004EFC0
:101E40000FF02FEF0FF01E2A010E1F26000E20228A
:101E500021222222D8902232213220321F32000E3B
:101E60001F14196E000E20141A6E000E21141B6E22
:101E7000FF0E22141C6E19501A101B101C10D8A42F
:101E800044EF0FF046EF0FF023EF0FF04EEF0FF09F
:101E90001E06D8901F3620362136223621BE53EF3B
:101EA0000FF055EF0FF05DEF0FF0020E1E605BEFCD
:101EB0000FF05DEF0FF048EF0FF01EB062EF0FF084
:101EC00064EF0FF065EF0FF0219ED8901E321EC018
:101ED00019F01A6A1B6A1C6A19C01CF01B6A1A6A7C
:101EE000196A19501F121A5020121B5021121C502F
:101EF00022121D50D8B47FEF0FF081EF0FF089EF61
:101F00000FF018BE88EF0FF086EF0FF089EF0FF09B
:101F1000228E1FC015F020C016F021C017F022C07D
:101F200018F012001550D8B498EF0FF09AEF0FF098
:101F3000B8EF0FF01550D96EDA6ADF30E832E832C8
:101F4000070B166E080E1660A8EF0FF0AAEF0FF041
:101F5000B8EF0FF01550D96EDA6ADF50070B166E26
:101F6000040E1664B6EF0FF0B8EF0FF00DEF10F09F
:101F700023EF10F01550D96EDA6ADF30E832E8321C
:101F8000070B166E010E176E162AC9EF0FF0D890C8
:101F90001736162EC7EF0FF01550D96EDA6ADF50DC
:101FA000070B020DF3508A0FD96EDA6ADECF18F0F4
:101FB000DDCF19F018C0D9FF19C0DAFF1750DF12B2
:101FC000B8EF0FF01550D96EDA6ADF30E832E83238
:101FD000070B166E010E176E162AF1EF0FF0D89050
:101FE0001736162EEFEF0FF01750FF0A186E155028
:101FF000D96EDA6ADF50070B020DF3508A0FD96EE3
:10200000DA6ADECF19F0DDCF1AF019C0D9FF1AC095
:10201000DAFF1850DF16B8EF0FF01550D96EDA6AF4
:10202000DFBC15EF10F018EF10F0010E19EF10F0F3
:10203000000E000AD8B4E2EF0FF0010AD8B4BAEFEC
:102040000FF0B8EF0FF0010E12001550D8B42BEFBF
:1020500010F02DEF10F04BEF10F01550D96EDA6A3A
:10206000DF30E832E832070B176E080E17603BEFDF
:1020700010F03DEF10F04BEF10F01550D96EDA6A0A
:10208000DF50070B176E040E176449EF10F04BEF8B
:1020900010F0A0EF10F0B5EF10F01550D96EDA6A1D
:1020A000DF30E832E832070B176E010E186E172A80
:1020B0005CEF10F0D8901836172E5AEF10F0185029
:1020C000FF0A196E1550D96EDA6ADF50070B020D40
:1020D000F3505E0FD96EDA6ADECF1AF0DDCF1BF057
:1020E0001AC0D9FF1BC0DAFF1950DF164BEF10F0F2
:1020F0001550D96EDA6ADF30E832E832070B176E16
:10210000010E186E172A87EF10F0D8901836172E88
:1021100085EF10F01550D96EDA6ADF50070B020D0B
:10212000F3505E0FD96EDA6ADECF19F0DDCF1AF008
:1021300019C0D9FF1AC0DAFF1850DF124BEF10F0A8
:102140001650176E186A1850000AD8B4AAEF10F08B
:102150004BEF10F01750000AD8B44DEF10F0010A01
:10216000D8B478EF10F04BEF10F0010E12000150D0
:10217000D8B4BDEF10F0BFEF10F0DDEF10F001505C
:10218000D96EDA6ADF30E832E832070B036E080EE8
:102190000360CDEF10F0CFEF10F0DDEF10F0015045
:1021A000D96EDA6ADF50070B036E040E0364DBEFAF
:1021B00010F0DDEF10F032EF11F047EF11F00150A9
:1021C000D96EDA6ADF30E832E832070B036E010EAF
:1021D000046E032AEEEF10F0D8900436032EECEFD5
:1021E00010F00450FF0A056E0150D96EDA6ADF5014
:1021F000070B020DF3505E0FD96EDA6ADECF06F0E0
:10220000DDCF07F006C0D9FF07C0DAFF0550DF16A3
:10221000DDEF10F00150D96EDA6ADF30E832E832D3
:10222000070B036E010E046E032A19EF11F0D8900C
:102230000436032E17EF11F00150D96EDA6ADF5021
:10224000070B020DF3505E0FD96EDA6ADECF05F090
:10225000DDCF06F005C0D9FF06C0DAFF0450DF125B
:10226000DDEF10F00250036E046A0450000AD8B487
:102270003CEF11F0DDEF10F00350000AD8B4DFEFAF
:1022800010F0010AD8B40AEF11F0DDEF10F01200DF
:102290005D0E016E15EC15F0BAEF11F06A0E086EC6
:1022A000B1EC13F0230E026E000E046E0F0E036EDF
:1022B00079EC14F0D1EF11F0690E086EB1EC13F067
:1022C000330E026E000E046E0F0E036E79EC14F0E6
:1022D000D1EF11F06A0E086EE6EC13F0010E026EFB
:1022E000000E046E100E036E79EC14F0D1EF11F0B5
:1022F000690E086EE6EC13F0120E026E000E046E0C
:10230000100E036E79EC14F0D1EF11F06A0E086E26
:10231000B1EC13F0690E086EB1EC13F0230E026EEF
:10232000000E046E0F0E036E79EC14F0350E026E83
:10233000000E046E0D0E036E79EC14F0D1EF11F067
:102340006A0E086EE6EC13F0690E086EE6EC13F008
:10235000010E026E000E046E100E036E79EC14F086
:10236000140E026E000E046E0E0E036E79EC14F065
:10237000D1EF11F05D50610AD8B44EEF11F0030AAD
:10238000D8B45CEF11F0010AD8B46AEF11F0070A73
:10239000D8B478EF11F0010AD8B486EF11F0A0EFAD
:1023A00011F0AE501200173418341E6E1E50D8A40F
:1023B000DCEF11F0DEEF11F0E8EF11F0000E156E1A
:1023C000000E166E000E176E000E186E55EF12F00E
:1023D00015C019F016C01AF017C01BF018C01CF079
:1023E000200EF8EF11F0D8901C321B321A3219323D
:1023F000E82EF3EF11F019501D6E178EFF0E151613
:10240000FF0E1616FF0E1716000E1816960E1E5EFD
:102410001EBE0FEF12F00DEF12F025EF12F01E505E
:10242000800A970FD8B017EF12F019EF12F01BEFD8
:1024300012F0DEEF11F0D890183217321632153242
:102440001E3E1BEF12F03DEF12F01F0E1E642BEF2D
:1024500012F02DEF12F035EF12F0DEEF11F0D89000
:1024600015361636173618361E061E50D8A43BEF02
:1024700012F03DEF12F02FEF12F01D50D8B443EFE1
:1024800012F045EF12F04DEF12F0181E171E161E37
:10249000156C000E16221722182215C015F016C052
:1024A00016F017C017F018C018F012001550D96EAA
:1024B000DA6A050ED926DFA860EF12F062EF12F09B
:1024C000BCEF12F0AB881550D96EDA6A050ED9262A
:1024D000DFAA6DEF12F06FEF12F08FEF12F09D8A0E
:1024E0001550D96EDA6A0A0ED926DECF50F0DDCF4C
:1024F00051F01550D96EDA6A0C0ED926DECF4EF0A7
:10250000DDCF4FF01550D96EDA6A0E0ED926DECF28
:102510004CF0DDCF4DF0F28EF28C9CEF12F01550A6
:10252000D96EDA6A050ED926DFBA99EF12F09BEF61
:1025300012F09CEF12F09D9A1550D96EDA6A050ED2
:10254000D926DFACA6EF12F0A8EF12F0ABEF12F035
:10255000AB8CC9EF12F01550D96EDA6A050ED92688
:10256000DFBCB5EF12F0B7EF12F0BAEF12F0AB9C90
:10257000C9EF12F0C9EF12F01550D96EDA6A050EE4
:10258000D926DFB8C6EF12F0C8EF12F0C9EF12F08B
:10259000AB9812001550D96EDA6A030ED926DFA85F
:1025A000D4EF12F0D6EF12F01EEF13F0AC8A1550F4
:1025B000D96EDA6A030ED926DFAAE1EF12F0E3EF53
:1025C00012F0F1EF12F09D881550D96EDA6A080EFC
:1025D000D926DECF52F0DDCF53F0F28EF28CFEEF33
:1025E00012F01550D96EDA6A030ED926DFBAFBEF66
:1025F00012F0FDEF12F0FEEF12F09D981550D96E1B
:10260000DA6A030ED926DFAC08EF13F00AEF13F0F5
:102610000DEF13F0AC8C2BEF13F01550D96EDA6A76
:10262000030ED926DFBC17EF13F019EF13F01CEFE0
:1026300013F0AC9C2BEF13F02BEF13F01550D96E69
:10264000DA6A030ED926DFB828EF13F02AEF13F069
:102650002BEF13F0AC9A12000600FACF0BF0FBCF71
:102660000CF0D9CF0DF0DACF0EF0F3CF0FF0F4CF9E
:1026700010F0F6CF11F0F7CF12F0F8CF13F0F5CF3E
:1026800014F09DA846EF13F048EF13F051EF13F04C
:102690009EA84DEF13F04FEF13F051EF13F0D1EC74
:1026A00014F09DAA56EF13F058EF13F061EF13F0FA
:1026B0009EAA5DEF13F05FEF13F061EF13F0B9EC3A
:1026C00014F014C0F5FF13C0F8FF12C0F7FF11C0DB
:1026D000F6FF10C0F4FF0FC0F3FF0EC0DAFF0DC00D
:1026E000D9FF0CC0FBFF0BC0FAFF6B9211001C500E
:1026F000D8B47DEF13F07FEF13F09DEF13F01C5073
:10270000D96EDA6ADF30E832E832070B1D6E080E48
:102710001D608DEF13F08FEF13F09DEF13F01C5041
:10272000D96EDA6ADF50070B1D6E040E1D649BEF35
:1027300013F09DEF13F09FEF13F0B0EF13F01CC0F8
:1027400015F092EC0FF01E6E1CC015F01C50D96EE7
:10275000DA6A000EDFBE010E166E25EC10F01E16B2
:1027600012000850D8A4B7EF13F0B9EF13F0BBEF85
:1027700013F0E5EF13F056C00AF00850D96EDA6A8C
:10278000DF500F0B096E0A500918F80B09180A6E72
:102790000850D96EDA6ADF38070B096E0946094618
:1027A00009460A500918C70B09180A6E0A9C0850F6
:1027B000D96EDA6ADFAE02D00A8E01D00A9E0A0E06
:1027C000016E010E026EB7EC10F012000850D8A492
:1027D000ECEF13F0EEEF13F0F0EF13F01AEF14F04C
:1027E00055C00AF00850D96EDA6ADF500F0B096E37
:1027F0000A500918F80B09180A6E0850D96EDA6ADF
:10280000DF38070B096E0946094609460A500918C0
:10281000C70B09180A6E0A9C0850D96EDA6ADFAE37
:1028200002D00A8E01D00A9E0A0E016E000E026EC0
:10283000B7EC10F012001F50D8A421EF14F023EFD2
:1028400014F025EF14F04DEF14F057C021F01F5095
:10285000D96EDA6ADF500F0B206E21502018F80B6A
:102860002018216E1F50D96EDA6ADF38070B206EF0
:1028700020462046204621502018C70B2018216EE4
:10288000219C1F50D96EDA6ADFAE02D0218E01D0B2
:10289000219E210E1C6E77EC13F01200D00EF66E06
:1028A000290EF76E000EF86E00EE80F010EE24F0A8
:1028B0000900F5CFEEFFE550E150FAE1440EF66E67
:1028C0002A0EF76E000EF86E00EE5EF010EE0DF0C0
:1028D0000900F5CFEEFFE550E150FAE100EE4CF0D3
:1028E000120EEE6AE806FDE16B906B92000129EF93
:1028F00015F0010E076E000E086E8DEF14F00250F9
:102900000824056E05C0F6FF100EF76EF86A080081
:10291000F55008EC15F00716082A0850056E066AEF
:102920000350055C04500658D8A099EF14F09BEFB3
:1029300014F07FEF14F012000001AF51D8A4A3EF00
:1029400014F0A5EF14F0A7EF14F0B8EF14F0AB8E6D
:10295000948E948CAFC0A4F022EC08F0AFC015F0B8
:10296000CAEC12F0AFC015F056EC12F0A5EF14F05F
:10297000120050505110D8B4C0EF14F0C2EF14F050
:10298000D0EF14F002D8CEEF14F00500FA6E5050DC
:10299000FD6E5150FE6EFF6AFA501200D0EF14F037
:1029A00012009D9852505310D8B4D9EF14F0DBEFB9
:1029B00014F0E7EF14F002D8E7EF14F00500FA6E18
:1029C0005250FD6E5350FE6EFF6AFA501200120014
:1029D000800F810F820F830F840F920F930F940F3C
:1029E000950F960F80250130003000005E2A90225E
:1029F00000000000940E0001AF6F9CEC14F06A0E12
:102A00001F6E1BEC14F0690E1F6E1BEC14F012000D
:102A1000016EACA20EEF15F010EF15F009EF15F0F6
:102A20009D8801C0ADFF010E12009EAA1AEF15F09D
:102A30001CEF15F021EF15F00150D96EDA6AAECF18
:102A4000DFFF1200890F8A0F8B0F8C0F8D0F011380
:012A50000382
:102A5200FAEC14F02BEF15F007EF00F05B2A1200EE
:020000040030CA
:0E000000FF071F1EFF8385FF0FC00FE00F409C
:00000001FF
