:0400000073EF12F098
:10100000000023EF0AF0AC98B896AC943850D96E33
:10101000DA6ADECF39F0DDCF3AF039C001F03AC0FC
:1010200002F0036A046A000E96EC0EF001C013F0A1
:1010300002C014F003C015F004C016F0000E0F6ECD
:10104000240E106EF40E116E4A0E126EC9EC0CF0E6
:101050000FC03FF010C040F011C041F012C042F08C
:10106000000E136E000E146E800E156E420E166E7C
:101070003FC00FF040C010F041C011F042C012F06C
:10108000C9EC0CF00FC028F010C029F011C02AF0F4
:1010900012C02BF0000E2C6E000E2D6E800E2E6EE8
:1010A000BF0E2F6E69EC0AF028C03BF029C03CF05F
:1010B0002AC03DF02BC03EF04DEF0AF0AC98B89638
:1010C000AC843850D96EDA6ADECF39F0DDCF3AF031
:1010D00039C001F03AC002F0036A046A000E96ECCF
:1010E0000EF001C013F002C014F003C015F004C0EC
:1010F00016F0000E0F6E240E106EF40E116E4A0ED6
:10110000126EC9EC0CF00FC03FF010C040F011C0DF
:1011100041F012C042F0000E136E000E146E800EED
:10112000156E410E166E3FC00FF040C010F041C06A
:1011300011F042C012F0C9EC0CF00FC028F010C042
:1011400029F011C02AF012C02BF0000E2C6E000EF8
:101150002D6E800E2E6EBF0E2F6E69EC0AF028C029
:101160003BF029C03CF02AC03DF02BC03EF04DEFD3
:101170000AF0AC98B886AC943850D96EDA6ADECFF3
:1011800039F0DDCF3AF039C001F03AC002F0036A1D
:10119000046A000E96EC0EF001C013F002C014F0C9
:1011A00003C015F004C016F0000E0F6E240E106E72
:1011B000F40E116E4A0E126EC9EC0CF00FC03FF027
:1011C00010C040F011C041F012C042F0000E136E8A
:1011D000000E146E800E156E410E166E3FC00FF09D
:1011E00040C010F041C011F042C012F0C9EC0CF048
:1011F0000FC028F010C029F011C02AF012C02BF047
:10120000000E2C6E000E2D6E800E2E6EBF0E2F6EF9
:1012100069EC0AF028C03BF029C03CF02AC03DF040
:101220002BC03EF04DEF0AF0AC98B886AC84385035
:10123000D96EDA6ADECF39F0DDCF3AF039C001F08D
:101240003AC002F0036A046A000E96EC0EF001C088
:1012500013F002C014F003C015F004C016F0000E25
:101260000F6E240E106EF40E116E4A0E126EC9EC43
:101270000CF00FC03FF010C040F011C041F012C0A0
:1012800042F0000E136E000E146E800E156E400EAE
:10129000166E3FC00FF040C010F041C011F042C0C8
:1012A00012F0C9EC0CF00FC028F010C029F011C0EA
:1012B0002AF012C02BF0000E2C6E000E2D6E800E48
:1012C0002E6EBF0E2F6E69EC0AF028C03BF029C0CD
:1012D0003CF02AC03DF02BC03EF04DEF0AF0AC8848
:1012E000B8963850D96EDA6ADECF39F0DDCF3AF0F1
:1012F00039C001F03AC002F0036A046A000E96ECAD
:101300000EF001C013F002C014F003C015F004C0C9
:1013100016F0000E0F6E240E106EF40E116E4A0EB3
:10132000126EC9EC0CF00FC03FF010C040F011C0BD
:1013300041F012C042F0000E136E000E146E800ECB
:10134000156E400E166E3FC00FF040C010F041C049
:1013500011F042C012F0C9EC0CF00FC028F010C020
:1013600029F011C02AF012C02BF0000E2C6E000ED6
:101370002D6E800E2E6EBF0E2F6E69EC0AF028C007
:101380003BF029C03CF02AC03DF02BC03EF04DEFB1
:101390000AF0AC88B8863850D96EDA6ADECF39F0F8
:1013A000DDCF3AF039C001F03AC002F0036A046AB6
:1013B000000E96EC0EF001C013F002C014F003C052
:1013C00015F004C016F0000E0F6E240E106EF40E11
:1013D000116E4A0E126EC9EC0CF00FC03FF010C037
:1013E00040F011C041F012C042F0000E136E000E2A
:1013F000146E800E156E400E166E3FC00FF040C08A
:1014000010F041C011F042C012F0C9EC0CF00FC056
:1014100028F010C029F011C02AF012C02BF0000EE5
:101420002C6E000E2D6E800E2E6EBF0E2F6E69EC90
:101430000AF028C03BF029C03CF02AC03DF02BC088
:101440003EF04DEF0AF03850D96EDA6A020ED92616
:10145000DF50396E3A6A3A50000AD8B432EF0AF0D7
:101460004DEF0AF03950000AD8B403EF08F0010A32
:10147000D8B45EEF08F0030AD8B4B9EF08F0010A57
:10148000D8B414EF09F0070AD8B46FEF09F0010AD5
:10149000D8B4C9EF09F04DEF0AF03BC001F03CC0F1
:1014A00002F03DC003F03EC004F095EC10F0015096
:1014B000AF6E3BC001F03CC002F03DC003F03EC047
:1014C00004F095EC10F002C001F0026A0150B06E19
:1014D00012002B50800B346E2B502B24366E2AAE0C
:1014E00074EF0AF076EF0AF077EF0AF036803650A4
:1014F000D8B47DEF0AF07FEF0AF094EF0AF03628B7
:10150000D8A485EF0AF087EF0AF08FEF0AF0000EFB
:10151000286E000E296E000E2A6E000E2B6E2A8E8B
:10152000000E2B6E9CEF0AF0000E286E000E296E46
:10153000000E2A6E000E2B6E2F50800B356E34502D
:101540003518D8B4A6EF0AF0A8EF0AF0A9EF0AF010
:10155000348C2F502F24356E2EAEB1EF0AF0B3EF3E
:101560000AF0B4EF0AF035803550D8B4BAEF0AF07B
:10157000BCEF0AF0D1EF0AF03528D8A4C2EF0AF088
:10158000C4EF0AF0CCEF0AF0000E2C6E000E2D6EA8
:10159000000E2E6E000E2F6E2E8E000E2F6ED9EFC7
:1015A0000AF0000E2C6E000E2D6E000E2E6E000E38
:1015B0002F6E3650355CD8B0E0EF0AF0E2EF0AF05B
:1015C00009EF0BF034ACE7EF0AF0E9EF0AF0EBEFCC
:1015D0000AF0800E341A36C037F035C036F037C006
:1015E00035F028C037F02CC028F037C02CF029C0C7
:1015F00037F02DC029F037C02DF02AC037F02EC0AB
:101600002AF037C02EF02BC037F02FC02BF037C098
:101610002FF0000E376E365035C030F0316A305E34
:10162000000E315A31BE1EEF0BF0315009E11A0E97
:10163000305CD8A01EEF0BF020EF0BF057EF0BF053
:10164000285029102A102B10D8A429EF0BF02CEFCA
:101650000BF0010E2DEF0BF0000E376E000E286E12
:10166000000E296E000E2A6E000E2B6E35C036F06D
:1016700060EF0BF037A03FEF0BF041EF0BF047EFBF
:101680000BF0D89037300109376E49EF0BF0D89046
:10169000373228A04EEF0BF050EF0BF051EF0BF06C
:1016A000378E2B342B322A3229322832362A3550C3
:1016B000365CD8A05EEF0BF060EF0BF03AEF0BF06A
:1016C00034BC65EF0BF067EF0BF0A7EF0BF0365073
:1016D000D8A46DEF0BF06FEF0BF079EF0BF0000E6D
:1016E000286E000E296E000E2A6E000E2B6EC8EFBB
:1016F0000CF02C5028262D5029222E502A222F5013
:101700002B222BA086EF0BF088EF0BF034EF0CF0C0
:1017100037A08DEF0BF08FEF0BF095EF0BF0D8901B
:1017200037300109376E97EF0BF0D890373228A089
:101730009CEF0BF09EEF0BF09FEF0BF0378E2B34EE
:101740002B322A3229322832362A34EF0CF02C5030
:10175000285C2D5029582E502A582B50800A306E64
:101760002F50800A3058D8B0B8EF0BF0BAEF0BF01A
:10177000E5EF0BF028502C5C306E29502D58316E5F
:101780002A502E58326E2B502F58336EFF0E3024B5
:10179000286EFF0E3120296EFF0E32202A6EFF0EBA
:1017A00033202B6E800E341A376C3750D8A4DBEF01
:1017B0000BF0DDEF0BF0EDEF0BF0010E2826000E25
:1017C00029222A222B22EDEF0BF02C50285E2D50DF
:1017D000295A2E502A5A2F502B5A285029102A1095
:1017E0002B10D8A4F6EF0BF0F8EF0BF02DEF0CF068
:1017F0003750D8A4FEEF0BF000EF0CF02DEF0CF0FB
:10180000000E286E000E296E000E2A6E000E2B6E42
:10181000C8EF0CF0D890283629362A362B3637AE4A
:1018200014EF0CF016EF0CF017EF0CF0288037A037
:101830001CEF0CF01EEF0CF022EF0CF0D8803736C6
:1018400024EF0CF0D89037363650D8B42AEF0CF08D
:101850002CEF0CF02DEF0CF036062AAE32EF0CF028
:1018600034EF0CF00AEF0CF0000E356E37AE3BEFA4
:101870000CF03DEF0CF055EF0CF037C030F07F0E60
:101880003016D8B446EF0CF048EF0CF04CEF0CF0EB
:10189000010E356E55EF0CF028A051EF0CF053EF10
:1018A0000CF055EF0CF048EF0CF03550D8B45BEF6E
:1018B0000CF05DEF0CF088EF0CF0010E2826000E06
:1018C00029222A222B222BA068EF0CF06AEF0CF0C1
:1018D00088EF0CF028C030F029C031F02AC032F077
:1018E0002BC033F03334333232323132303230C005
:1018F00028F031C029F032C02AF033C02BF036284E
:10190000D8B485EF0CF087EF0CF088EF0CF0362A96
:101910003628D8B48EEF0CF090EF0CF098EF0CF066
:101920003650D8A496EF0CF098EF0CF0AAEF0CF01C
:10193000000E286E000E296E000E2A6E000E2B6E11
:101940003650D8A4A6EF0CF0A8EF0CF0AAEF0CF0DC
:10195000000E346E36A0AFEF0CF0B1EF0CF0B4EF28
:101960000CF02A8EB5EF0CF02A9ED89036302B6EF4
:1019700034AEBDEF0CF0BFEF0CF0C0EF0CF02B8ECF
:1019800028C028F029C029F02AC02AF02BC02BF04B
:1019900012001250800B1F6E12501224266E11AED0
:1019A000D4EF0CF0D6EF0CF0D7EF0CF026802650D9
:1019B000D8B4DDEF0CF0DFEF0CF0F4EF0CF02628DC
:1019C000D8A4E5EF0CF0E7EF0CF0EFEF0CF0000E11
:1019D0000F6E000E106E000E116E000E126E118E44
:1019E000000E126EFCEF0CF0000E0F6E000E106E6B
:1019F000000E116E000E126E1650800B1F1A16503C
:101A00001624276E15AE07EF0DF009EF0DF00AEF63
:101A10000DF027802750D8B410EF0DF012EF0DF025
:101A200027EF0DF02728D8A418EF0DF01AEF0DF0CE
:101A300022EF0DF0000E136E000E146E000E156EE8
:101A4000000E166E158E000E166E2FEF0DF0000EA6
:101A5000136E000E146E000E156E000E166E1350EF
:101A6000141015101610D8A438EF0DF03AEF0DF041
:101A700052EF0DF0000E0F6E000E106E000E116E84
:101A8000000E126E800E11127F0E12121F501212D3
:101A90000FC00FF010C010F011C011F012C012F002
:101AA00095EF0EF02650D8A458EF0DF05AEF0DF038
:101AB00064EF0DF0000E0F6E000E106E000E116E32
:101AC000000E126E95EF0EF0275026C017F0186A20
:101AD000175E000E185A7F0E1724206E000E182075
:101AE000216E0FC01BF010C01CF011C01DF012C001
:101AF0001EF0000E0F6E000E106E000E116E000E26
:101B0000126E000E226E000E236E000E246E000E6A
:101B1000256E000E276EC5EF0DF02750D8B493EF59
:101B20000DF095EF0DF0ACEF0DF0D8901B361C3694
:101B30001D361E36D8900F3610361136123625AEA9
:101B4000A4EF0DF0A6EF0DF0A7EF0DF00F80D890E9
:101B5000223623362436253613501B5C14501C586D
:101B600015501D5816501E58D8A0B9EF0DF0BBEFF8
:101B70000DF0C4EF0DF0258C13501B5E14501C5A51
:101B800015501D5A16501E5A272A190E2764CBEFDE
:101B90000DF0CDEF0DF08DEF0DF01B501C101D1052
:101BA0001E10D8B4D6EF0DF0D8EF0DF0F0EF0DF019
:101BB0002280F0EF0DF0D8900F3610361136123625
:101BC00025AEE5EF0DF0E7EF0DF0E8EF0DF00F803B
:101BD000D89022362336243625362006D8A0210672
:101BE00011AEF5EF0DF0F7EF0DF0DBEF0DF0000E9D
:101BF000276E25AEFEEF0DF000EF0EF024EF0EF095
:101C0000FF0E2214176EFF0E2314186EFF0E2414FD
:101C1000196E7F0E25141A6E1750181019101A100D
:101C2000D8B415EF0EF017EF0EF01BEF0EF0010E0B
:101C3000276E24EF0EF00FA020EF0EF022EF0EF033
:101C400024EF0EF017EF0EF02750D8B42AEF0EF065
:101C50002CEF0EF050EF0EF0010E0F26000E1022AA
:101C60001122122212A037EF0EF039EF0EF050EFD2
:101C70000EF00FC017F010C018F011C019F012C00C
:101C80001AF01A341A3219321832173217C00FF0FC
:101C900018C010F019C011F01AC012F0204A212A01
:101CA00021BE5BEF0EF0215008E12028D8A05BEFA9
:101CB0000EF05DEF0EF068EF0EF0000E216E206862
:101CC000000E0F6E000E106E000E116E000E126EE2
:101CD00021BE75EF0EF0215006E12004D8B073EF5D
:101CE0000EF075EF0EF083EF0EF0000E216E000E79
:101CF000206E000E0F6E000E106E000E116E000EA4
:101D0000126E000E1F6E20C026F026A08AEF0EF085
:101D10008CEF0EF08FEF0EF0118E90EF0EF0119E03
:101D2000D8902630126E46EF0DF01200096E095061
:101D3000D8B49DEF0EF09FEF0EF0C1EF0EF004BE91
:101D4000A6EF0EF0A4EF0EF0C1EF0EF001C005F00B
:101D500002C006F003C007F004C008F0051E061E0E
:101D6000071E081E052A000E06220722082205C0AB
:101D70000BF006C00CF007C00DF008C00EF0C9EF64
:101D80000EF001C00BF002C00CF003C00DF004C057
:101D90000EF00150021003100410D8A4D2EF0EF080
:101DA000D4EF0EF0DEEF0EF0000E016E000E026EAC
:101DB000000E036E000E046E6FEF0FF0960E0A6EAB
:101DC000E8EF0EF00A2AD8900E320D320C320B32A8
:101DD000000E0B14056E000E0C14066E000E0D1492
:101DE000076EFE0E0E14086E055006100710081040
:101DF000D8A4FDEF0EF0FFEF0EF0E2EF0EF00DEFC6
:101E00000FF00A2A010E0B26000E0C220D220E22C4
:101E1000D8900E320D320C320B32000E0B14056EC0
:101E2000000E0C14066E000E0D14076EFF0E0E143D
:101E3000086E0550061007100810D8A422EF0FF006
:101E400024EF0FF001EF0FF02CEF0FF00A06D890FF
:101E50000B360C360D360E360DBE31EF0FF033EF6C
:101E60000FF03BEF0FF0020E0A6039EF0FF03BEF7F
:101E70000FF026EF0FF00AB040EF0FF042EF0FF037
:101E800043EF0FF00D9ED8900A320AC005F0066AA3
:101E9000076A086A05C008F0076A066A056A0550FD
:101EA0000B1206500C1207500D1208500E1209505A
:101EB000D8B45DEF0FF05FEF0FF067EF0FF004BEE7
:101EC00066EF0FF064EF0FF067EF0FF00E8E0BC0B0
:101ED00001F00CC002F00DC003F00EC004F01200BF
:101EE0000150D8B476EF0FF078EF0FF096EF0FF0C7
:101EF0000150D96EDA6ADF30E832E832070B026E41
:101F0000080E026086EF0FF088EF0FF096EF0FF0EB
:101F10000150D96EDA6ADF50070B026E040E0264BC
:101F200094EF0FF096EF0FF0EBEF0FF001EF10F0E2
:101F30000150D96EDA6ADF30E832E832070B026E00
:101F4000010E036E022AA7EF0FF0D8900336022E7F
:101F5000A5EF0FF00150D96EDA6ADF50070B020DC2
:101F6000F3505A0FD96EDA6ADECF04F0DDCF05F0F8
:101F700004C0D9FF05C0DAFF0350DF1296EF0FF05F
:101F80000150D96EDA6ADF30E832E832070B026EB0
:101F9000010E036E022ACFEF0FF0D8900336022E07
:101FA000CDEF0FF00350FF0A046E0150D96EDA6ACC
:101FB000DF50070B020DF3505A0FD96EDA6ADECFED
:101FC00005F0DDCF06F005C0D9FF06C0DAFF0450EA
:101FD000DF1696EF0FF00150D96EDA6ADFBCF3EF2F
:101FE0000FF0F6EF0FF0010EF7EF0FF0000E000A02
:101FF000D8B4C0EF0FF0010AD8B498EF0FF096EF05
:102000000FF0010E12000150D8B409EF10F00BEFE1
:1020100010F029EF10F00150D96EDA6ADF30E832A3
:10202000E832070B036E080E036019EF10F01BEF88
:1020300010F029EF10F00150D96EDA6ADF50070B6B
:10204000036E040E036427EF10F029EF10F07EEF0B
:1020500010F093EF10F00150D96EDA6ADF30E832F9
:10206000E832070B036E010E046E032A3AEF10F0FC
:10207000D8900436032E38EF10F00450FF0A056E96
:102080000150D96EDA6ADF50070B020DF350460F8C
:10209000D96EDA6ADECF06F0DDCF07F006C0D9FFD1
:1020A00007C0DAFF0550DF1629EF10F00150D96E96
:1020B000DA6ADF30E832E832070B036E010E046E95
:1020C000032A65EF10F0D8900436032E63EF10F06A
:1020D0000150D96EDA6ADF50070B020DF350460F3C
:1020E000D96EDA6ADECF05F0DDCF06F005C0D9FF84
:1020F00006C0DAFF0450DF1229EF10F00250036E21
:10210000046A0450000AD8B488EF10F029EF10F0E8
:102110000350000AD8B42BEF10F0010AD8B456EFE0
:1021200010F029EF10F0010E1200033404340A6E8F
:102130000A50D8A49EEF10F0A0EF10F0AAEF10F014
:10214000000E016E000E026E000E036E000E046E95
:1021500017EF11F001C005F002C006F003C007F050
:1021600004C008F0200EBAEF10F0D8900832073201
:1021700006320532E82EB5EF10F00550096E038ED9
:10218000FF0E0116FF0E0216FF0E0316000E0416B8
:10219000960E0A5E0ABED1EF10F0CFEF10F0E7EF17
:1021A00010F00A50800A970FD8B0D9EF10F0DBEF8B
:1021B00010F0DDEF10F0A0EF10F0D89004320332F1
:1021C000023201320A3EDDEF10F0FFEF10F01F0E79
:1021D0000A64EDEF10F0EFEF10F0F7EF10F0A0EF62
:1021E00010F0D89001360236033604360A060A503B
:1021F000D8A4FDEF10F0FFEF10F0F1EF10F0095050
:10220000D8B405EF11F007EF11F00FEF11F0041E35
:10221000031E021E016C000E02220322042201C0D2
:1022200001F002C002F003C003F004C004F0120089
:102230000150D96EDA6A030ED926DFAA22EF11F017
:1022400024EF11F061EF11F0AC8A0150D96EDA6A17
:10225000030ED926DFAA2FEF11F031EF11F034EF82
:1022600011F09D8841EF11F00150D96EDA6A030E2A
:10227000D926DFBA3EEF11F040EF11F041EF11F037
:102280009D980150D96EDA6A030ED926DFAE4BEF66
:1022900011F04DEF11F050EF11F0AC8C6EEF11F02A
:1022A0000150D96EDA6A030ED926DFBE5AEF11F05B
:1022B0005CEF11F05FEF11F0AC9C6EEF11F06EEF80
:1022C00011F00150D96EDA6A030ED926DFBA6BEF2E
:1022D00011F06DEF11F06EEF11F0AC9A1200015099
:1022E000D96EDA6A040ED926DFAA79EF11F07BEFF6
:1022F00011F0B8EF11F0AB880150D96EDA6A040E14
:10230000D926DFAC86EF11F088EF11F08BEF11F0DA
:102310009D8A98EF11F00150D96EDA6A040ED92621
:10232000DFBC95EF11F097EF11F098EF11F09D9A47
:102330000150D96EDA6A040ED926DFAEA2EF11F091
:10234000A4EF11F0A7EF11F0AB8CC5EF11F0015025
:10235000D96EDA6A040ED926DFBEB1EF11F0B3EF01
:1023600011F0B6EF11F0AB9CC5EF11F0C5EF11F015
:102370000150D96EDA6A040ED926DFBAC2EF11F025
:10238000C4EF11F0C5EF11F0AB9812000850D8B4AB
:10239000CCEF11F0CEEF11F0ECEF11F00850D96E48
:1023A000DA6ADF30E832E832070B096E080E09609E
:1023B000DCEF11F0DEEF11F0ECEF11F00850D96E08
:1023C000DA6ADF50070B096E040E0964EAEF11F0B8
:1023D000ECEF11F0EEEF11F0FFEF11F008C001F09B
:1023E00070EC0FF00A6E08C001F00850D96EDA6A7E
:1023F000000EDFBE010E026E03EC10F00A16120092
:102400000B50D8A406EF12F008EF12F00AEF12F00A
:1024100032EF12F077C00DF00B50D96EDA6ADF5050
:102420000F0B0C6E0D500C18F80B0C180D6E0B509A
:10243000D96EDA6ADF38070B0C6E0C460C460C4678
:102440000D500C18C70B0C180D6E0D9C0B50D96E4F
:10245000DA6ADFAE02D00D8E01D00D9E0D0E086E31
:10246000C6EC11F01200B0EC12F0610EA4EC12F008
:10247000646E0B0E456E260E446E5E0EE82EFED781
:10248000442EFCD7452EFAD7620EA4EC12F0646EEF
:102490000B0E456E260E446E5E0EE82EFED7442EC1
:1024A000FCD7452EFAD735EF12F000EF00F043507D
:1024B000D8A45DEF12F05FEF12F061EF12F072EF4F
:1024C00012F0AB8E948E948C43C038F001EC08F07F
:1024D00043C001F018EC11F043C001F06FEC11F0B3
:1024E0005FEF12F012001A0EF66E250EF76E000E58
:1024F000F86E00EE46F010EE2EF00900F5CFEEFF7C
:10250000E550E150FAE1786A776A766A756A746A2A
:10251000000EF86E000133EF12F0890F8A0F8B0F57
:102520008C0F8D0F800F810F820F830F840F920FFE
:10253000930F940F950F960F018025012020000026
:102540000000000000000083016EACA2AAEF12F0B0
:10255000ACEF12F0A5EF12F001C0ADFF010E1200BA
:10256000650E436E57EC12F0730E0B6E00EC12F01A
:02257000120057
:020000040030CA
:0E000000FF071F1EFF8385FF0FC00FE00F409C
:00000001FF
