:0400000024EF13F0E6
:10100000005475726E204F6666202F720054757200
:091010006E204F6E202F720000CB
:10101A002FEF0AF0AC98B896AC943850D96EDA6AC9
:10102A00DECF39F0DDCF3AF039C001F03AC002F034
:10103A00036A046A000EA2EC0EF001C013F002C0AB
:10104A0014F003C015F004C016F0000E0F6E240E43
:10105A00106EF40E116E4A0E126ED5EC0CF00FC023
:10106A003FF010C040F011C041F012C042F0000E33
:10107A00136E000E146E800E156E420E166E3FC071
:10108A000FF040C010F041C011F042C012F0D5EC90
:10109A000CF00FC028F010C029F011C02AF012C0BD
:1010AA002BF0000E2C6E000E2D6E800E2E6EBF0ED3
:1010BA002F6E75EC0AF028C03BF029C03CF02AC01C
:1010CA003DF02BC03EF059EF0AF0AC98B896AC84CC
:1010DA003850D96EDA6ADECF39F0DDCF3AF039C04E
:1010EA0001F03AC002F0036A046A000EA2EC0EF0A4
:1010FA0001C013F002C014F003C015F004C016F0CA
:10110A00000E0F6E240E106EF40E116E4A0E126E41
:10111A00D5EC0CF00FC03FF010C040F011C041F008
:10112A0012C042F0000E136E000E146E800E156E81
:10113A00410E166E3FC00FF040C010F041C011F0D2
:10114A0042C012F0D5EC0CF00FC028F010C029F004
:10115A0011C02AF012C02BF0000E2C6E000E2D6E5C
:10116A00800E2E6EBF0E2F6E75EC0AF028C03BF073
:10117A0029C03CF02AC03DF02BC03EF059EF0AF0DE
:10118A00AC98B886AC943850D96EDA6ADECF39F0AA
:10119A00DDCF3AF039C001F03AC002F0036A046ABE
:1011AA00000EA2EC0EF001C013F002C014F003C04E
:1011BA0015F004C016F0000E0F6E240E106EF40E19
:1011CA00116E4A0E126ED5EC0CF00FC03FF010C033
:1011DA0040F011C041F012C042F0000E136E000E32
:1011EA00146E800E156E410E166E3FC00FF040C091
:1011FA0010F041C011F042C012F0D5EC0CF00FC053
:10120A0028F010C029F011C02AF012C02BF0000EED
:10121A002C6E000E2D6E800E2E6EBF0E2F6E75EC8C
:10122A000AF028C03BF029C03CF02AC03DF02BC090
:10123A003EF059EF0AF0AC98B886AC843850D96EB3
:10124A00DA6ADECF39F0DDCF3AF039C001F03AC0C0
:10125A0002F0036A046A000EA2EC0EF001C013F059
:10126A0002C014F003C015F004C016F0000E0F6E91
:10127A00240E106EF40E116E4A0E126ED5EC0CF09E
:10128A000FC03FF010C040F011C041F012C042F050
:10129A00000E136E000E146E800E156E400E166E42
:1012AA003FC00FF040C010F041C011F042C012F030
:1012BA00D5EC0CF00FC028F010C029F011C02AF0AC
:1012CA0012C02BF0000E2C6E000E2D6E800E2E6EAC
:1012DA00BF0E2F6E75EC0AF028C03BF029C03CF017
:1012EA002AC03DF02BC03EF059EF0AF0AC88B89600
:1012FA003850D96EDA6ADECF39F0DDCF3AF039C02C
:10130A0001F03AC002F0036A046A000EA2EC0EF081
:10131A0001C013F002C014F003C015F004C016F0A7
:10132A00000E0F6E240E106EF40E116E4A0E126E1F
:10133A00D5EC0CF00FC03FF010C040F011C041F0E6
:10134A0012C042F0000E136E000E146E800E156E5F
:10135A00400E166E3FC00FF040C010F041C011F0B1
:10136A0042C012F0D5EC0CF00FC028F010C029F0E2
:10137A0011C02AF012C02BF0000E2C6E000E2D6E3A
:10138A00800E2E6EBF0E2F6E75EC0AF028C03BF051
:10139A0029C03CF02AC03DF02BC03EF059EF0AF0BC
:1013AA00AC88B8863850D96EDA6ADECF39F0DDCF2C
:1013BA003AF039C001F03AC002F0036A046A000E3A
:1013CA00A2EC0EF001C013F002C014F003C015F035
:1013DA0004C016F0000E0F6E240E106EF40E116E7D
:1013EA004A0E126ED5EC0CF00FC03FF010C040F060
:1013FA0011C041F012C042F0000E136E000E146EBE
:10140A00800E156E400E166E3FC00FF040C010F0F1
:10141A0041C011F042C012F0D5EC0CF00FC028F018
:10142A0010C029F011C02AF012C02BF0000E2C6E49
:10143A00000E2D6E800E2E6EBF0E2F6E75EC0AF00A
:10144A0028C03BF029C03CF02AC03DF02BC03EF03A
:10145A0059EF0AF03850D96EDA6A020ED926DF50EF
:10146A00396E3A6A3A50000AD8B43EEF0AF059EF98
:10147A000AF03950000AD8B40FEF08F0010AD8B4BC
:10148A006AEF08F0030AD8B4C5EF08F0010AD8B425
:10149A0020EF09F0070AD8B47BEF09F0010AD8B4A3
:1014AA00D5EF09F059EF0AF03BC001F03CC002F059
:1014BA003DC003F03EC004F0A1EC10F00150AF6E45
:1014CA003BC001F03CC002F03DC003F03EC004F056
:1014DA00A1EC10F002C001F0026A0150B06E1200D5
:1014EA002B50800B346E2B502B24366E2AAE80EF95
:1014FA000AF082EF0AF083EF0AF036803650D8B449
:10150A0089EF0AF08BEF0AF0A0EF0AF03628D8A488
:10151A0091EF0AF093EF0AF09BEF0AF0000E286EA3
:10152A00000E296E000E2A6E000E2B6E2A8E000EF9
:10153A002B6EA8EF0AF0000E286E000E296E000E20
:10154A002A6E000E2B6E2F50800B356E34503518D4
:10155A00D8B4B2EF0AF0B4EF0AF0B5EF0AF0348C5F
:10156A002F502F24356E2EAEBDEF0AF0BFEF0AF0D2
:10157A00C0EF0AF035803550D8B4C6EF0AF0C8EF8C
:10158A000AF0DDEF0AF03528D8A4CEEF0AF0D0EF42
:10159A000AF0D8EF0AF0000E2C6E000E2D6E000E27
:1015AA002E6E000E2F6E2E8E000E2F6EE5EF0AF0B5
:1015BA00000E2C6E000E2D6E000E2E6E000E2F6E7B
:1015CA003650355CD8B0ECEF0AF0EEEF0AF015EFC2
:1015DA000BF034ACF3EF0AF0F5EF0AF0F7EF0AF08C
:1015EA00800E341A36C037F035C036F037C035F0C1
:1015FA0028C037F02CC028F037C02CF029C037F0AB
:10160A002DC029F037C02DF02AC037F02EC02AF09D
:10161A0037C02EF02BC037F02FC02BF037C02FF079
:10162A00000E376E365035C030F0316A305E000E2B
:10163A00315A31BE2AEF0BF0315009E11A0E305CF3
:10164A00D8A02AEF0BF02CEF0BF063EF0BF0285029
:10165A0029102A102B10D8A435EF0BF038EF0BF015
:10166A00010E39EF0BF0000E376E000E286E000ED9
:10167A00296E000E2A6E000E2B6E35C036F06CEF06
:10168A000BF037A04BEF0BF04DEF0BF053EF0BF0D5
:10169A00D89037300109376E55EF0BF0D8903732B2
:1016AA0028A05AEF0BF05CEF0BF05DEF0BF0378ED2
:1016BA002B342B322A3229322832362A3550365CDC
:1016CA00D8A06AEF0BF06CEF0BF046EF0BF034BCCE
:1016DA0071EF0BF073EF0BF0B3EF0BF03650D8A4A9
:1016EA0079EF0BF07BEF0BF085EF0BF0000E286E15
:1016FA00000E296E000E2A6E000E2B6ED4EF0CF02F
:10170A002C5028262D5029222E502A222F502B22A7
:10171A002BA092EF0BF094EF0BF040EF0CF037A0F8
:10172A0099EF0BF09BEF0BF0A1EF0BF0D89037304D
:10173A000109376EA3EF0BF0D890373228A0A8EF33
:10174A000BF0AAEF0BF0ABEF0BF0378E2B342B32EA
:10175A002A3229322832362A40EF0CF02C50285CE3
:10176A002D5029582E502A582B50800A306E2F504F
:10177A00800A3058D8B0C4EF0BF0C6EF0BF0F1EF87
:10178A000BF028502C5C306E29502D58316E2A509F
:10179A002E58326E2B502F58336EFF0E3024286E7F
:1017AA00FF0E3120296EFF0E32202A6EFF0E3320E3
:1017BA002B6E800E341A376C3750D8A4E7EF0BF033
:1017CA00E9EF0BF0F9EF0BF0010E2826000E2922A3
:1017DA002A222B22F9EF0BF02C50285E2D50295A81
:1017EA002E502A5A2F502B5A285029102A102B10C3
:1017FA00D8A402EF0CF004EF0CF039EF0CF03750DC
:10180A00D8A40AEF0CF00CEF0CF039EF0CF0000E34
:10181A00286E000E296E000E2A6E000E2B6ED4EF73
:10182A000CF0D890283629362A362B3637AE20EFD8
:10183A000CF022EF0CF023EF0CF0288037A028EFF1
:10184A000CF02AEF0CF02EEF0CF0D880373630EF80
:10185A000CF0D89037363650D8B436EF0CF038EF53
:10186A000CF039EF0CF036062AAE3EEF0CF040EFE2
:10187A000CF016EF0CF0000E356E37AE47EF0CF099
:10188A0049EF0CF061EF0CF037C030F07F0E3016E4
:10189A00D8B452EF0CF054EF0CF058EF0CF0010EE4
:1018AA00356E61EF0CF028A05DEF0CF05FEF0CF0E5
:1018BA0061EF0CF054EF0CF03550D8B467EF0CF030
:1018CA0069EF0CF094EF0CF0010E2826000E292285
:1018DA002A222B222BA074EF0CF076EF0CF094EF57
:1018EA000CF028C030F029C031F02AC032F02BC0E9
:1018FA0033F03334333232323132303230C028F0BE
:10190A0031C029F032C02AF033C02BF03628D8B4BF
:10191A0091EF0CF093EF0CF094EF0CF0362A362886
:10192A00D8B49AEF0CF09CEF0CF0A4EF0CF0365000
:10193A00D8A4A2EF0CF0A4EF0CF0B6EF0CF0000E56
:10194A00286E000E296E000E2A6E000E2B6E36507F
:10195A00D8A4B2EF0CF0B4EF0CF0B6EF0CF0000E16
:10196A00346E36A0BBEF0CF0BDEF0CF0C0EF0CF0FC
:10197A002A8EC1EF0CF02A9ED89036302B6E34AEE8
:10198A00C9EF0CF0CBEF0CF0CCEF0CF02B8E28C08B
:10199A0028F029C029F02AC02AF02BC02BF0120007
:1019AA001250800B1F6E12501224266E11AEE0EFF9
:1019BA000CF0E2EF0CF0E3EF0CF026802650D8B4DE
:1019CA00E9EF0CF0EBEF0CF000EF0DF02628D8A4AD
:1019DA00F1EF0CF0F3EF0CF0FBEF0CF0000E0F6ED2
:1019EA00000E106E000E116E000E126E118E000E99
:1019FA00126E08EF0DF0000E0F6E000E106E000E44
:101A0A00116E000E126E1650800B1F1A16501624F5
:101A1A00276E15AE13EF0DF015EF0DF016EF0DF062
:101A2A0027802750D8B41CEF0DF01EEF0DF033EFCE
:101A3A000DF02728D8A424EF0DF026EF0DF02EEF95
:101A4A000DF0000E136E000E146E000E156E000ED1
:101A5A00166E158E000E166E3BEF0DF0000E136E0D
:101A6A00000E146E000E156E000E166E1350141032
:101A7A0015101610D8A444EF0DF046EF0DF05EEFE6
:101A8A000DF0000E0F6E000E106E000E116E000E9D
:101A9A00126E800E11127F0E12121F5012120FC0F8
:101AAA000FF010C010F011C011F012C012F0A1EF27
:101ABA000EF02650D8A464EF0DF066EF0DF070EF2B
:101ACA000DF0000E0F6E000E106E000E116E000E5D
:101ADA00126EA1EF0EF0275026C017F0186A175E93
:101AEA00000E185A7F0E1724206E000E1820216E41
:101AFA000FC01BF010C01CF011C01DF012C01EF068
:101B0A00000E0F6E000E106E000E116E000E126E99
:101B1A00000E226E000E236E000E246E000E256E3D
:101B2A00000E276ED1EF0DF02750D8B49FEF0DF0BD
:101B3A00A1EF0DF0B8EF0DF0D8901B361C361D360C
:101B4A001E36D8900F3610361136123625AEB0EF43
:101B5A000DF0B2EF0DF0B3EF0DF00F80D8902236F2
:101B6A0023362436253613501B5C14501C58155046
:101B7A001D5816501E58D8A0C5EF0DF0C7EF0DF02E
:101B8A00D0EF0DF0258C13501B5E14501C5A1550C3
:101B9A001D5A16501E5A272A190E2764D7EF0DF020
:101BAA00D9EF0DF099EF0DF01B501C101D101E10EF
:101BBA00D8B4E2EF0DF0E4EF0DF0FCEF0DF0228067
:101BCA00FCEF0DF0D8900F3610361136123625AECE
:101BDA00F1EF0DF0F3EF0DF0F4EF0DF00F80D89068
:101BEA0022362336243625362006D8A0210611AE01
:101BFA0001EF0EF003EF0EF0E7EF0DF0000E276E87
:101C0A0025AE0AEF0EF00CEF0EF030EF0EF0FF0EDD
:101C1A002214176EFF0E2314186EFF0E2414196E69
:101C2A007F0E25141A6E1750181019101A10D8B4EE
:101C3A0021EF0EF023EF0EF027EF0EF0010E276EC4
:101C4A0030EF0EF00FA02CEF0EF02EEF0EF030EF6B
:101C5A000EF023EF0EF02750D8B436EF0EF038EF1F
:101C6A000EF05CEF0EF0010E0F26000E102211226C
:101C7A00122212A043EF0EF045EF0EF05CEF0EF0C9
:101C8A000FC017F010C018F011C019F012C01AF0E6
:101C9A001A341A3219321832173217C00FF018C014
:101CAA0010F019C011F01AC012F0204A212A21BEE0
:101CBA0067EF0EF0215008E12028D8A067EF0EF058
:101CCA0069EF0EF074EF0EF0000E216E2068000E20
:101CDA000F6E000E106E000E116E000E126E21BEF7
:101CEA0081EF0EF0215006E12004D8B07FEF0EF00C
:101CFA0081EF0EF08FEF0EF0000E216E000E206EB7
:101D0A00000E0F6E000E106E000E116E000E126E97
:101D1A00000E1F6E20C026F026A096EF0EF098EF58
:101D2A000EF09BEF0EF0118E9CEF0EF0119ED890E4
:101D3A002630126E52EF0DF01200096E0950D8B417
:101D4A00A9EF0EF0ABEF0EF0CDEF0EF004BEB2EF3E
:101D5A000EF0B0EF0EF0CDEF0EF001C005F002C0AC
:101D6A0006F003C007F004C008F0051E061E071E91
:101D7A00081E052A000E06220722082205C00BF0BB
:101D8A0006C00CF007C00DF008C00EF0D5EF0EF03B
:101D9A0001C00BF002C00CF003C00DF004C00EF03D
:101DAA000150021003100410D8A4DEEF0EF0E0EF89
:101DBA000EF0EAEF0EF0000E016E000E026E000E3B
:101DCA00036E000E046E7BEF0FF0960E0A6EF4EFB0
:101DDA000EF00A2AD8900E320D320C320B32000E57
:101DEA000B14056E000E0C14066E000E0D14076E11
:101DFA00FE0E0E14086E0550061007100810D8A41F
:101E0A0009EF0FF00BEF0FF0EEEF0EF019EF0FF0F6
:101E1A000A2A010E0B26000E0C220D220E22D89041
:101E2A000E320D320C320B32000E0B14056E000E00
:101E3A000C14066E000E0D14076EFF0E0E14086EBB
:101E4A000550061007100810D8A42EEF0FF030EF37
:101E5A000FF00DEF0FF038EF0FF00A06D8900B369F
:101E6A000C360D360E360DBE3DEF0FF03FEF0FF07C
:101E7A0047EF0FF0020E0A6045EF0FF047EF0FF041
:101E8A0032EF0FF00AB04CEF0FF04EEF0FF04FEFBA
:101E9A000FF00D9ED8900A320AC005F0066A076A4A
:101EAA00086A05C008F0076A066A056A05500B1237
:101EBA0006500C1207500D1208500E120950D8B4D1
:101ECA0069EF0FF06BEF0FF073EF0FF004BE72EFD4
:101EDA000FF070EF0FF073EF0FF00E8E0BC001F0E2
:101EEA000CC002F00DC003F00EC004F01200015045
:101EFA00D8B482EF0FF084EF0FF0A2EF0FF0015089
:101F0A00D96EDA6ADF30E832E832070B026E080E61
:101F1A00026092EF0FF094EF0FF0A2EF0FF0015072
:101F2A00D96EDA6ADF50070B026E040E0264A0EF64
:101F3A000FF0A2EF0FF0F7EF0FF00DEF10F00150D6
:101F4A00D96EDA6ADF30E832E832070B026E010E28
:101F5A00036E022AB3EF0FF0D8900336022EB1EFC8
:101F6A000FF00150D96EDA6ADF50070B020DF350F9
:101F7A005A0FD96EDA6ADECF04F0DDCF05F004C05D
:101F8A00D9FF05C0DAFF0350DF12A2EF0FF00150AC
:101F9A00D96EDA6ADF30E832E832070B026E010ED8
:101FAA00036E022ADBEF0FF0D8900336022ED9EF28
:101FBA000FF00350FF0A046E0150D96EDA6ADF503F
:101FCA00070B020DF3505A0FD96EDA6ADECF05F00D
:101FDA00DDCF06F005C0D9FF06C0DAFF0450DF16D0
:101FEA00A2EF0FF00150D96EDA6ADFBCFFEF0FF0F3
:101FFA0002EF10F0010E03EF10F0000E000AD8B441
:10200A00CCEF0FF0010AD8B4A4EF0FF0A2EF0FF053
:10201A00010E12000150D8B415EF10F017EF10F0AE
:10202A0035EF10F00150D96EDA6ADF30E832E83263
:10203A00070B036E080E036025EF10F027EF10F070
:10204A0035EF10F00150D96EDA6ADF50070B036ED4
:10205A00040E036433EF10F035EF10F08AEF10F03E
:10206A009FEF10F00150D96EDA6ADF30E832E832B9
:10207A00070B036E010E046E032A46EF10F0D89088
:10208A000436032E44EF10F00450FF0A056E015087
:10209A00D96EDA6ADF50070B020DF350460FD96E7C
:1020AA00DA6ADECF06F0DDCF07F006C0D9FF07C037
:1020BA00DAFF0550DF1635EF10F00150D96EDA6AF3
:1020CA00DF30E832E832070B036E010E046E032A92
:1020DA0071EF10F0D8900436032E6FEF10F0015014
:1020EA00D96EDA6ADF50070B020DF350460FD96E2C
:1020FA00DA6ADECF05F0DDCF06F005C0D9FF06C0EB
:10210A00DAFF0450DF1235EF10F00250036E046A52
:10211A000450000AD8B494EF10F035EF10F00350D1
:10212A00000AD8B437EF10F0010AD8B462EF10F001
:10213A0035EF10F0010E1200033404340A6E0A500F
:10214A00D8A4AAEF10F0ACEF10F0B6EF10F0000E22
:10215A00016E000E026E000E036E000E046E23EF77
:10216A0011F001C005F002C006F003C007F004C078
:10217A0008F0200EC6EF10F0D89008320732063267
:10218A000532E82EC1EF10F00550096E038EFF0EDE
:10219A000116FF0E0216FF0E0316000E0416960E07
:1021AA000A5E0ABEDDEF10F0DBEF10F0F3EF10F07D
:1021BA000A50800A970FD8B0E5EF10F0E7EF10F059
:1021CA00E9EF10F0ACEF10F0D8900432033202328B
:1021DA0001320A3EE9EF10F00BEF11F01F0E0A640C
:1021EA00F9EF10F0FBEF10F003EF11F0ACEF10F085
:1021FA00D89001360236033604360A060A50D8A4A5
:10220A0009EF11F00BEF11F0FDEF10F00950D8B4FF
:10221A0011EF11F013EF11F01BEF11F0041E031E62
:10222A00021E016C000E02220322042201C001F0E8
:10223A0002C002F003C003F004C004F0120001500F
:10224A00D96EDA6A030ED926DFAA2EEF11F030EF23
:10225A0011F06DEF11F0AC8A0150D96EDA6A030EF3
:10226A00D926DFAA3BEF11F03DEF11F040EF11F054
:10227A009D884DEF11F00150D96EDA6A030ED92606
:10228A00DFBA4AEF11F04CEF11F04DEF11F09D98C3
:10229A000150D96EDA6A030ED926DFAE57EF11F074
:1022AA0059EF11F05CEF11F0AC8C7AEF11F001509C
:1022BA00D96EDA6A030ED926DFBE66EF11F068EF2F
:1022CA0011F06BEF11F0AC9C7AEF11F07AEF11F08C
:1022DA000150D96EDA6A030ED926DFBA77EF11F008
:1022EA0079EF11F07AEF11F0AC9A12000150D96E21
:1022FA00DA6A040ED926DFAA85EF11F087EF11F00A
:10230A00C4EF11F0AB880150D96EDA6A040ED926EF
:10231A00DFAC92EF11F094EF11F097EF11F09D8A74
:10232A00A4EF11F00150D96EDA6A040ED926DFBC87
:10233A00A1EF11F0A3EF11F0A4EF11F09D9A015053
:10234A00D96EDA6A040ED926DFAEAEEF11F0B0EF1D
:10235A0011F0B3EF11F0AB8CD1EF11F00150D96E3F
:10236A00DA6A040ED926DFBEBDEF11F0BFEF11F015
:10237A00C2EF11F0AB9CD1EF11F0D1EF11F0015087
:10238A00D96EDA6A040ED926DFBACEEF11F0D0EF91
:10239A0011F0D1EF11F0AB9812006DEC13F0780E3A
:1023AA00016E53EC13F0646E620E7818D8A4E0EF55
:1023BA0011F0E2EF11F0F1EF11F0730E086E47EC35
:1023CA0012F00D0E026E000E046E090E036EE4EC9E
:1023DA0012F0646EFEEF11F0730E086E7CEC12F0D0
:1023EA00010E026E000E046E0A0E036EE4EC12F089
:1023FA00646E0B0E456E260E446E5E0EE82EFED7F8
:10240A00442EFCD7452EFAD7D4EF11F000EF00F096
:10241A000850D8B413EF12F015EF12F033EF12F0A0
:10242A000850D96EDA6ADF30E832E832070B096EF3
:10243A00080E096023EF12F025EF12F033EF12F0C5
:10244A000850D96EDA6ADF50070B096E040E096468
:10245A0031EF12F033EF12F035EF12F046EF12F0CF
:10246A0008C001F07CEC0FF00A6E08C001F00850B9
:10247A00D96EDA6A000EDFBE010E026E0FEC10F0A2
:10248A000A1612000850D8A44DEF12F04FEF12F0BE
:10249A0051EF12F07BEF12F076C00AF00850D96EB5
:1024AA00DA6ADF500F0B096E0A500918F80B09187F
:1024BA000A6E0850D96EDA6ADF38070B096E0946C8
:1024CA00094609460A500918C70B09180A6E0A9CD8
:1024DA000850D96EDA6ADFAE02D00A8E01D00A9E9F
:1024EA000A0E016E010E026E0FEC10F01200085077
:1024FA00D8A482EF12F084EF12F086EF12F0B0EF58
:10250A0012F075C00AF00850D96EDA6ADF500F0B64
:10251A00096E0A500918F80B09180A6E0850D96E84
:10252A00DA6ADF38070B096E0946094609460A5076
:10253A000918C70B09180A6E0A9C0850D96EDA6A7C
:10254A00DFAE02D00A8E01D00A9E0A0E016E000E7C
:10255A00026E0FEC10F012000B50D8A4B7EF12F075
:10256A00B9EF12F0BBEF12F0E3EF12F077C00DF003
:10257A000B50D96EDA6ADF500F0B0C6E0D500C1827
:10258A00F80B0C180D6E0B50D96EDA6ADF38070B90
:10259A000C6E0C460C460C460D500C18C70B0C184A
:1025AA000D6E0D9C0B50D96EDA6ADFAE02D00D8E1D
:1025BA0001D00D9E0D0E086E0DEC12F01200010EE8
:1025CA00076E000E086EF8EF12F002500824056E2E
:1025DA0005C0F6FF100EF76EF86A0800F55061ECB8
:1025EA0013F00716082A0850056E066A0350055CA0
:1025FA0004500658D8A004EF13F006EF13F0EAEFE0
:10260A0012F0075012004350D8A40EEF13F010EF47
:10261A0013F012EF13F023EF13F0AB8E948E948C19
:10262A0043C038F00DEC08F043C001F024EC11F07F
:10263A0043C001F07BEC11F010EF13F01200780E9A
:10264A00F66E260EF76E000EF86E00EE46F010EEED
:10265A002EF00900F5CFEEFFE550E150FAE1786A75
:10266A00776A766A756A746A0001D2EF11F0890F87
:10267A008A0F8B0F8C0F8D0F800F810F820F830FA4
:10268A00840F920F930F940F950F960F01802501D7
:10269A002020000000000000000000839EAA58EFDE
:1026AA0013F05AEF13F05FEF13F00150D96EDA6AA4
:1026BA00AECFDFFF010E1200016EACA267EF13F07E
:1026CA0069EF13F062EF13F001C0ADFF010E1200C3
:1026DA00650E436E08EC13F0730E0B6EB1EC12F03C
:0226EA001200DC
:020000040030CA
:0E000000FF071F1EFF8385FF0FC00FE00F409C
:00000001FF
